:100000000C945A000C9482000C9482000C942502EB
:100010000C9452020C947F020C9482000C94820087
:100020000C9482000C9482000C9482000C94820048
:100030000C9482000C9482000C9482000C94820038
:100040000C9443050C9482000C9464040C94960464
:100050000C9482000C9482000C9482000C94820018
:100060000C9482000C94820001020408102040804D
:1000700001020408102001020408102004040404F2
:100080000404040402020202020203030303030342
:1000900000000000230026002900000000002500C9
:1000A00028002B0000000000240027002A00AC00DC
:1000B000C602C60411241FBECFEFD8E0DEBFCDBFFD
:1000C00011E0A0E0B1E0E8E7FFE002C005900D928A
:1000D000AC31B107D9F722E0ACE1B1E001C01D922B
:1000E000AC30B207E1F710E0C4EBD0E004C02297D7
:1000F000FE010E948F06CE3AD107C9F70E94320551
:100100000C94BA070C940000CF93DF931F92CDB7E5
:10011000DEB726E040E855E260E070E082E691E07C
:100120000E940204CE0101960E94AC028CE191E093
:100130000E94B3020F90DF91CF91089568EE73E0B3
:1001400080E090E00E94BC058CE191E00E94B0024A
:100150008CE191E00C94B3028CE191E00C94AC0240
:1001600080913F01909140010196909340018093CE
:100170003F010E948D0560933B0170933C01809389
:100180003D0190933E010895CF93DF93DC01FB0185
:100190002283518340831296CD91DC9113978881FD
:1001A0009381892B888382818D7F813041F41596DC
:1001B0008C9115979381892B15968C931597828135
:1001C0008150823040F416968C9116979381892B3A
:1001D00016968C9316978091680014969C91892BA3
:1001E00080936800DF91CF910895EF92FF920F9373
:1001F0001F93CF93DF9300D000D0CDB7DEB77C0143
:10020000FC0180859185009779F08C01FC01848147
:10021000861306C0B801C7010E94C40080E03DC03B
:10022000F80185819681EFCF87E090E02C834A83A7
:100230005B8369830E944105DC0111961C921E922A
:1002400012961C9212972C814A815B8169810097DA
:1002500019F114966C93149712962C931297169684
:100260001C921E921597E62FF0E0E859FF4FE4919B
:100270001396EC931397F70180859185892B19F4D8
:10028000B187A08703C0F801B683A583BD01C7016C
:100290000E94C40081E001C08FEF0F900F900F907B
:1002A0000F90DF91CF911F910F91FF90EF900895E4
:1002B000242FE82FF0E0E458FF4FE491EE23D9F02B
:1002C00061157105C1F0F0E03297E330F10540F4BB
:1002D000EE0FFF1FEA5FFE4F0190F081E02D02C09C
:1002E000E0E0F0E0A081B1819C919783AB01682FA1
:1002F000CF010C94F5008FEF0895CF93DF9390E03A
:10030000FC01E458FF4F2491222309F44FC030E050
:10031000225031092330310548F4D901AA0FBB1FFF
:10032000AA5FBE4F0D90BC91A02D02C0A0E0B0E02E
:10033000FC01E859FF4F84911896CD91DC911997F3
:100340002097A1F19B8198132DC09FB7F894129626
:10035000ED91FC91139720818095822380831296E2
:10036000ED91FC9113978081811109C02091680063
:1003700014968C911497809582238093680015962B
:100380002C9115978B818095822315968C931597C8
:1003900016962C9116978B818095822316968C93B6
:1003A0009FBF04C00D80DE81C02DCACFDF91CF91E9
:1003B0000895FF920F931F93CF93DF93EC01209149
:1003C00061018F813D81909161014E81F0906101C9
:1003D000F094F4229323F92A8227F8228091610174
:1003E0008F830885198501151105E1F0D801139651
:1003F0009C918F2D892381F080916101892391E067
:1004000009F490E090935F01F8018481809360018A
:100410000190F081E02D0995D80115960D911C9160
:100420001697E1CF8BB39C81892349F08BB3892B3D
:100430008BBBE881F981808180936101C0CFDF911E
:10044000CF911F910F91FF9008951F920F920FB6B9
:100450000F9211242F933F934F935F936F937F934A
:100460008F939F93AF93BF93EF93FF93E0915501C9
:10047000F091560180818093610185E591E00E94B1
:10048000D901FF91EF91BF91AF919F918F917F9192
:100490006F915F914F913F912F910F900FBE0F90F1
:1004A0001F9018951F920F920FB60F9211242F9341
:1004B0003F934F935F936F937F938F939F93AF93EC
:1004C000BF93EF93FF93E0914B01F0914C0180813A
:1004D000809361018BE491E00E94D901FF91EF913B
:1004E000BF91AF919F918F917F916F915F914F914C
:1004F0003F912F910F900FBE0F901F9018951F9254
:100500000F920FB60F9211242F933F934F935F9347
:100510006F937F938F939F93AF93BF93EF93FF93CB
:10052000E0914101F091420180818093610181E479
:1005300091E00E94D901FF91EF91BF91AF919F91FE
:100540008F917F916F915F914F913F912F910F907C
:100550000FBE0F901F90189560E087E00C94310655
:1005600087E00C947D011092400110923F0110929F
:100570003B0110923C0110923D0110923E0143E07C
:1005800050E060EB70E087E00C945801E4E9F0E0A3
:100590008591949190935601809355018BE690E05C
:1005A000909358018093570181E0809359011092F4
:1005B0005A0110925B0110925E0110925D01E6E912
:1005C000F0E08591949190934C0180934B018CE6DF
:1005D00090E090934E0180934D0182E080934F0113
:1005E0001092500110925101109254011092530137
:1005F000E8E9F0E085919491909342018093410164
:100600008DE690E0909344018093430184E08093D1
:100610004501109246011092470110924A01109232
:100620004901EDE1F1E011821082128213821482FD
:100630001582369681E0EB33F807A9F70895FC019F
:10064000818D228D90E0805C9F4F821B91098F737A
:1006500099270895FC01918D828D981731F0828D34
:10066000E80FF11D858D90E008958FEF9FEF0895BD
:10067000FC01918D828D981761F0828DDF01A80FAA
:10068000B11D5D968C91928D9F5F9F73928F90E0CC
:1006900008958FEF9FEF08958CEB94E0892B49F03C
:1006A00080E090E0892B29F00E94BC0481110C9419
:1006B00000000895FC01848DDF01A80FB11DA35A2D
:1006C000BF4F2C91848D90E001968F739927848F72
:1006D000A689B7892C93A089B1898C9180648C9369
:1006E000938D848D981306C00288F389E02D808154
:1006F0008F7D80830895CF93DF93EC01888D8823CD
:10070000C9F0EA89FB89808185FD05C0A889B9897E
:100710008C9186FD0FC00FB607FCF5CF808185FF59
:10072000F2CFA889B9898C9185FFEDCFCE010E94C7
:100730005A03E7CFDF91CF910895CF92DF92FF92D6
:100740000F931F93CF93DF931F92CDB7DEB76C014A
:1007500081E0D60158968C9358975B969C915B9755
:100760005C968C915C97981307C05096ED91FC9124
:100770005197808185FD2EC0F601038D10E00F5F3B
:100780001F4F0F731127F02EF601848DF81211C040
:100790000FB607FCF9CFD6015096ED91FC91519719
:1007A000808185FFF1CFC60169830E945A03698168
:1007B000EBCF838DE80FF11DE35AFF4F6083D60125
:1007C0005B960C935B975296ED91FC9153978081C9
:1007D00080620CC0D6015696ED91FC9157976083CC
:1007E0005096ED91FC91519780818064808381E0E7
:1007F00090E00F90DF91CF911F910F91FF90DF90CC
:10080000CF900895BF92CF92DF92EF92FF92CF9355
:10081000DF93EC016A017B01B22EE889F98982E05D
:100820008083411581EE580761057105A1F060E0F4
:1008300079E08DE390E0A70196010E946B062150BC
:100840003109410951095695479537952795211545
:1008500080E1380798F0E889F989108260E874E847
:100860008EE190E0A70196010E946B0621503109AC
:10087000410951095695479537952795EC85FD8592
:100880003083EE85FF852083188EEC89FD89B08248
:10089000EA89FB89808180618083EA89FB89808184
:1008A00088608083EA89FB89808180688083EA8907
:1008B000FB8980818F7D8083DF91CF91FF90EF90C6
:1008C000DF90CF90BF9008951F920F920FB60F92B6
:1008D00011242F938F939F93EF93FF93E0917201D5
:1008E000F09173018081E0917801F091790182FDAE
:1008F00012C0908180917B018F5F8F7320917C016A
:10090000821751F0E0917B01F0E0EE59FE4F958F98
:1009100080937B0101C08081FF91EF919F918F9126
:100920002F910F900FBE0F901F9018951F920F924E
:100930000FB60F9211242F933F934F935F936F93B2
:100940007F938F939F93AF93BF93EF93FF9382E631
:1009500091E00E945A03FF91EF91BF91AF919F9157
:100960008F917F916F915F914F913F912F910F9058
:100970000FBE0F901F90189582E691E00E941F0312
:1009800021E0892B09F420E0822F0895109265015F
:100990001092640188EE93E0A0E0B0E080936601DD
:1009A00090936701A0936801B093690180E191E0A1
:1009B000909363018093620185EC90E090936F01C6
:1009C00080936E0184EC90E09093710180937001AC
:1009D00080EC90E0909373018093720181EC90E041
:1009E000909375018093740182EC90E0909377016D
:1009F0008093760186EC90E0909379018093780162
:100A000010927B0110927C0110927D0110927E0168
:100A10000895CF92DF92EF92FF920F931F93CF939F
:100A2000DF937C016A01EB0100E010E00C151D056D
:100A300071F06991D701ED91FC910190F081E02D69
:100A4000C7010995892B19F00F5F1F4FEFCFC80120
:100A5000DF91CF911F910F91FF90EF90DF90CF909A
:100A6000089508950E94F6050E9431050E948400B1
:100A7000CCE4D3E00E949E002097E1F30E944C0357
:100A8000F9CF0C9493061F920F920FB60F92112478
:100A90002F933F938F939F93AF93BF9380910002C7
:100AA00090910102A0910202B09103023091FF01E6
:100AB00023E0230F2D3720F40196A11DB11D05C0A1
:100AC00026E8230F0296A11DB11D2093FF018093FC
:100AD000000290930102A0930202B093030280915E
:100AE000040290910502A0910602B09107020196BE
:100AF000A11DB11D8093040290930502A0930602EC
:100B0000B0930702BF91AF919F918F913F912F9129
:100B10000F900FBE0F901F9018952FB7F89460910B
:100B200000027091010280910202909103022FBF96
:100B300008953FB7F8948091040290910502A09126
:100B40000602B091070226B5A89B05C02F3F19F0F9
:100B50000196A11DB11D3FBF6627782F892F9A2FBF
:100B6000620F711D811D911D42E0660F771F881F66
:100B7000991F4A95D1F708958F929F92AF92BF9295
:100B8000CF92DF92EF92FF926B017C010E94990558
:100B90004B015C01C114D104E104F104F1F00E94A5
:100BA0006A060E949905681979098A099B09683EB5
:100BB00073408105910570F321E0C21AD108E10864
:100BC000F10888EE880E83E0981EA11CB11CC114A8
:100BD000D104E104F10429F7DDCFFF90EF90DF901D
:100BE000CF90BF90AF909F908F900895789484B5E8
:100BF000826084BD84B5816084BD85B5826085BD19
:100C000085B5816085BDEEE6F0E0808181608083FE
:100C1000E1E8F0E0108280818260808380818160E1
:100C20008083E0E8F0E0808181608083E1EBF0E0A8
:100C3000808184608083E0EBF0E08081816080834C
:100C4000EAE7F0E080818460808380818260808335
:100C50008081816080838081806880831092C10060
:100C60000895CF93DF9390E0FC01E859FF4F249162
:100C7000FC01E458FF4F8491882349F190E0880FEC
:100C8000991FFC01EC55FF4FA591B49186569F4FDB
:100C9000FC01C591D4919FB7611108C0F8948C9163
:100CA000209582238C93888182230AC0623051F47C
:100CB000F8948C91322F309583238C938881822BEA
:100CC000888304C0F8948C91822B8C939FBFDF9112
:100CD000CF9108950895A1E21A2EAA1BBB1BFD0116
:100CE0000DC0AA1FBB1FEE1FFF1FA217B307E4070B
:100CF000F50720F0A21BB30BE40BF50B661F771F63
:100D0000881F991F1A9469F7609570958095909542
:100D10009B01AC01BD01CF010895EE0FFF1F0590AF
:100D2000F491E02D0994CF93DF938230910510F474
:100D300082E090E0E0910A02F0910B0220E030E0C6
:100D4000A0E0B0E0309739F1408151814817590750
:100D5000B8F04817590771F482819381109729F0F0
:100D600013969C938E9312972CC090930B028093B2
:100D70000A0227C02115310531F04217530718F038
:100D8000A901DB0101C0EF019A01BD01DF01028071
:100D9000F381E02DD7CF21153105F9F0281B390B50
:100DA0002430310580F48A819B816115710521F021
:100DB000FB019383828304C090930B0280930A0209
:100DC000FE01329644C0FE01E20FF31F819391931E
:100DD00022503109398328833AC02091080230918A
:100DE0000902232B41F42091020130910301309339
:100DF0000902209308022091000130910101211580
:100E0000310541F42DB73EB74091040150910501E1
:100E1000241B350BE0910802F0910902E217F30759
:100E2000A0F42E1B3F0B2817390778F0AC014E5F5A
:100E30005F4F2417350748F04E0F5F1F509309028C
:100E4000409308028193919302C0E0E0F0E0CF016B
:100E5000DF91CF910895CF93DF93009709F487C076
:100E6000FC01329713821282C0910A02D0910B02C8
:100E7000209781F420813181280F391F8091080249
:100E8000909109028217930779F5F0930902E09394
:100E900008026DC0DE0120E030E0AE17BF0750F45D
:100EA00012964D915C9113979D014115510509F1E1
:100EB000DA01F3CFB383A28340815181840F951F60
:100EC0008A179B0771F48D919C911197840F951F40
:100ED00002969183808312968D919C9113979383B0
:100EE00082832115310529F4F0930B02E0930A0265
:100EF0003EC0D9011396FC93EE9312974D915D91EC
:100F0000A40FB51FEA17FB0779F480819181840F44
:100F1000951F0296D90111969C938E93828193819D
:100F200013969C938E931297E0E0F0E08A819B8168
:100F3000009719F0FE01EC01F9CFCE01029628814D
:100F40003981820F931F20910802309109022817DE
:100F5000390769F4309729F410920B0210920A02B3
:100F600002C013821282D0930902C0930802DF915B
:080F7000CF910895F894FFCF22
:100F780000000C02800055014B01410100000000F7
:0C0F88009D0309051F0338032A037B03A7
:00000001FF
